{
  "contractName": "Election",
  "abi": [
    {
      "inputs": [],
      "stateMutability": "nonpayable",
      "type": "constructor"
    },
    {
      "anonymous": false,
      "inputs": [
        {
          "indexed": false,
          "internalType": "address",
          "name": "candidateId",
          "type": "address"
        },
        {
          "indexed": false,
          "internalType": "uint256",
          "name": "candidateNum",
          "type": "uint256"
        },
        {
          "indexed": false,
          "internalType": "string",
          "name": "candidateName",
          "type": "string"
        }
      ],
      "name": "Registered",
      "type": "event"
    },
    {
      "anonymous": false,
      "inputs": [
        {
          "indexed": false,
          "internalType": "address",
          "name": "voter",
          "type": "address"
        },
        {
          "indexed": false,
          "internalType": "address",
          "name": "candidate",
          "type": "address"
        }
      ],
      "name": "Voted",
      "type": "event"
    },
    {
      "inputs": [],
      "name": "candidateCount",
      "outputs": [
        {
          "internalType": "uint256",
          "name": "",
          "type": "uint256"
        }
      ],
      "stateMutability": "view",
      "type": "function",
      "constant": true
    },
    {
      "inputs": [
        {
          "internalType": "uint256",
          "name": "",
          "type": "uint256"
        }
      ],
      "name": "candidates",
      "outputs": [
        {
          "internalType": "address",
          "name": "id",
          "type": "address"
        },
        {
          "internalType": "uint256",
          "name": "voteCount",
          "type": "uint256"
        },
        {
          "internalType": "string",
          "name": "candidateName",
          "type": "string"
        }
      ],
      "stateMutability": "view",
      "type": "function",
      "constant": true
    },
    {
      "inputs": [],
      "name": "startTime",
      "outputs": [
        {
          "internalType": "uint256",
          "name": "",
          "type": "uint256"
        }
      ],
      "stateMutability": "view",
      "type": "function",
      "constant": true
    },
    {
      "inputs": [],
      "name": "stopTime",
      "outputs": [
        {
          "internalType": "uint256",
          "name": "",
          "type": "uint256"
        }
      ],
      "stateMutability": "view",
      "type": "function",
      "constant": true
    },
    {
      "inputs": [
        {
          "internalType": "address",
          "name": "",
          "type": "address"
        }
      ],
      "name": "voters",
      "outputs": [
        {
          "internalType": "bool",
          "name": "",
          "type": "bool"
        }
      ],
      "stateMutability": "view",
      "type": "function",
      "constant": true
    },
    {
      "inputs": [
        {
          "internalType": "string",
          "name": "_name",
          "type": "string"
        }
      ],
      "name": "addCandidate",
      "outputs": [],
      "stateMutability": "nonpayable",
      "type": "function"
    },
    {
      "inputs": [
        {
          "internalType": "uint256",
          "name": "num",
          "type": "uint256"
        }
      ],
      "name": "setStop",
      "outputs": [],
      "stateMutability": "nonpayable",
      "type": "function"
    },
    {
      "inputs": [
        {
          "internalType": "uint256",
          "name": "num",
          "type": "uint256"
        }
      ],
      "name": "setStart",
      "outputs": [],
      "stateMutability": "nonpayable",
      "type": "function"
    },
    {
      "inputs": [
        {
          "internalType": "uint256",
          "name": "_candidateId",
          "type": "uint256"
        }
      ],
      "name": "Vote",
      "outputs": [],
      "stateMutability": "nonpayable",
      "type": "function"
    },
    {
      "inputs": [],
      "name": "getResult",
      "outputs": [
        {
          "components": [
            {
              "internalType": "address",
              "name": "id",
              "type": "address"
            },
            {
              "internalType": "uint256",
              "name": "voteCount",
              "type": "uint256"
            },
            {
              "internalType": "string",
              "name": "candidateName",
              "type": "string"
            }
          ],
          "internalType": "struct Election.Candidate",
          "name": "candidate",
          "type": "tuple"
        }
      ],
      "stateMutability": "view",
      "type": "function",
      "constant": true
    }
  ],
  "bytecode": "0x608060405234801561001057600080fd5b5033600260006101000a81548173ffffffffffffffffffffffffffffffffffffffff021916908373ffffffffffffffffffffffffffffffffffffffff160217905550611801806100616000396000f3fe608060405234801561001057600080fd5b506004361061009e5760003560e01c8063a9a981a311610066578063a9a981a31461015d578063c1f127e21461017b578063dcd6a5cd14610197578063de292789146101b3578063f6a03ebf146101d15761009e565b806303ff5e73146100a35780633477ee2e146100c1578063462e91ec146100f357806378e979251461010f578063a3ec138d1461012d575b600080fd5b6100ab6101ed565b6040516100b89190610b97565b60405180910390f35b6100db60048036038101906100d69190610bf2565b6101f3565b6040516100ea93929190610cf0565b60405180910390f35b61010d60048036038101906101089190610e63565b6102c5565b005b6101176104a0565b6040516101249190610b97565b60405180910390f35b61014760048036038101906101429190610ed8565b6104a6565b6040516101549190610f20565b60405180910390f35b6101656104c6565b6040516101729190610b97565b60405180910390f35b61019560048036038101906101909190610bf2565b6104cc565b005b6101b160048036038101906101ac9190610bf2565b6105b5565b005b6101bb61085b565b6040516101c89190610ff3565b60405180910390f35b6101eb60048036038101906101e69190610bf2565b610a6a565b005b60055481565b60016020528060005260406000206000915090508060000160009054906101000a900473ffffffffffffffffffffffffffffffffffffffff169080600101549080600201805461024290611044565b80601f016020809104026020016040519081016040528092919081815260200182805461026e90611044565b80156102bb5780601f10610290576101008083540402835291602001916102bb565b820191906000526020600020905b81548152906001019060200180831161029e57829003601f168201915b5050505050905083565b600080600190506000600190505b6003548111610364573373ffffffffffffffffffffffffffffffffffffffff166001600083815260200190815260200160002060000160009054906101000a900473ffffffffffffffffffffffffffffffffffffffff1673ffffffffffffffffffffffffffffffffffffffff16036103515760019250809150610364565b808061035c906110a4565b9150506102d3565b508115610394578260016000838152602001908152602001600020600201908161038e9190611298565b5061045e565b600360008154809291906103a7906110a4565b919050555060405180606001604052803373ffffffffffffffffffffffffffffffffffffffff168152602001600081526020018481525060016000600354815260200190815260200160002060008201518160000160006101000a81548173ffffffffffffffffffffffffffffffffffffffff021916908373ffffffffffffffffffffffffffffffffffffffff1602179055506020820151816001015560408201518160020190816104599190611298565b509050505b7f6cbc388989dfabc5be9f5fcbe5da02f3df0c392b42fcda0a88fa4bc9d39c12c7336003548560405161049393929190610cf0565b60405180910390a1505050565b60045481565b60006020528060005260406000206000915054906101000a900460ff1681565b60035481565b600260009054906101000a900473ffffffffffffffffffffffffffffffffffffffff1673ffffffffffffffffffffffffffffffffffffffff163373ffffffffffffffffffffffffffffffffffffffff161461055c576040517f08c379a0000000000000000000000000000000000000000000000000000000008152600401610553906113b6565b60405180910390fd5b428111801561056c575060045481115b6105ab576040517f08c379a00000000000000000000000000000000000000000000000000000000081526004016105a290611422565b60405180910390fd5b8060058190555050565b60045442116105f9576040517f08c379a00000000000000000000000000000000000000000000000000000000081526004016105f09061148e565b60405180910390fd5b60055442111561063e576040517f08c379a0000000000000000000000000000000000000000000000000000000008152600401610635906114fa565b60405180910390fd5b600015156000803373ffffffffffffffffffffffffffffffffffffffff1673ffffffffffffffffffffffffffffffffffffffff16815260200190815260200160002060009054906101000a900460ff161515146106d0576040517f08c379a00000000000000000000000000000000000000000000000000000000081526004016106c790611566565b60405180910390fd5b600060035411610715576040517f08c379a000000000000000000000000000000000000000000000000000000000815260040161070c906115d2565b60405180910390fd5b60035481111580156107275750600081115b610766576040517f08c379a000000000000000000000000000000000000000000000000000000000815260040161075d9061163e565b60405180910390fd5b60016000803373ffffffffffffffffffffffffffffffffffffffff1673ffffffffffffffffffffffffffffffffffffffff16815260200190815260200160002060006101000a81548160ff0219169083151502179055506001600082815260200190815260200160002060010160008154809291906107e4906110a4565b91905055507fce0c7a2a940807f7dc2ce7a615c2532e915e6c0ac9a08bc4ed9d515a710a53e2336001600084815260200190815260200160002060000160009054906101000a900473ffffffffffffffffffffffffffffffffffffffff1660405161085092919061165e565b60405180910390a150565b610863610b47565b6005544210156108a8576040517f08c379a000000000000000000000000000000000000000000000000000000000815260040161089f906116d3565b60405180910390fd5b6000600354116108ed576040517f08c379a00000000000000000000000000000000000000000000000000000000081526004016108e49061173f565b60405180910390fd5b600080600090506000600190505b600354811161095257816001600083815260200190815260200160002060010154111561093f57600160008281526020019081526020016000206001015491508092505b808061094a906110a4565b9150506108fb565b50600160008381526020019081526020016000206040518060600160405290816000820160009054906101000a900473ffffffffffffffffffffffffffffffffffffffff1673ffffffffffffffffffffffffffffffffffffffff1673ffffffffffffffffffffffffffffffffffffffff168152602001600182015481526020016002820180546109e190611044565b80601f0160208091040260200160405190810160405280929190818152602001828054610a0d90611044565b8015610a5a5780601f10610a2f57610100808354040283529160200191610a5a565b820191906000526020600020905b815481529060010190602001808311610a3d57829003601f168201915b5050505050815250509250505090565b600260009054906101000a900473ffffffffffffffffffffffffffffffffffffffff1673ffffffffffffffffffffffffffffffffffffffff163373ffffffffffffffffffffffffffffffffffffffff1614610afa576040517f08c379a0000000000000000000000000000000000000000000000000000000008152600401610af1906113b6565b60405180910390fd5b42811015610b3d576040517f08c379a0000000000000000000000000000000000000000000000000000000008152600401610b34906117ab565b60405180910390fd5b8060048190555050565b6040518060600160405280600073ffffffffffffffffffffffffffffffffffffffff16815260200160008152602001606081525090565b6000819050919050565b610b9181610b7e565b82525050565b6000602082019050610bac6000830184610b88565b92915050565b6000604051905090565b600080fd5b600080fd5b610bcf81610b7e565b8114610bda57600080fd5b50565b600081359050610bec81610bc6565b92915050565b600060208284031215610c0857610c07610bbc565b5b6000610c1684828501610bdd565b91505092915050565b600073ffffffffffffffffffffffffffffffffffffffff82169050919050565b6000610c4a82610c1f565b9050919050565b610c5a81610c3f565b82525050565b600081519050919050565b600082825260208201905092915050565b60005b83811015610c9a578082015181840152602081019050610c7f565b60008484015250505050565b6000601f19601f8301169050919050565b6000610cc282610c60565b610ccc8185610c6b565b9350610cdc818560208601610c7c565b610ce581610ca6565b840191505092915050565b6000606082019050610d056000830186610c51565b610d126020830185610b88565b8181036040830152610d248184610cb7565b9050949350505050565b600080fd5b600080fd5b7f4e487b7100000000000000000000000000000000000000000000000000000000600052604160045260246000fd5b610d7082610ca6565b810181811067ffffffffffffffff82111715610d8f57610d8e610d38565b5b80604052505050565b6000610da2610bb2565b9050610dae8282610d67565b919050565b600067ffffffffffffffff821115610dce57610dcd610d38565b5b610dd782610ca6565b9050602081019050919050565b82818337600083830152505050565b6000610e06610e0184610db3565b610d98565b905082815260208101848484011115610e2257610e21610d33565b5b610e2d848285610de4565b509392505050565b600082601f830112610e4a57610e49610d2e565b5b8135610e5a848260208601610df3565b91505092915050565b600060208284031215610e7957610e78610bbc565b5b600082013567ffffffffffffffff811115610e9757610e96610bc1565b5b610ea384828501610e35565b91505092915050565b610eb581610c3f565b8114610ec057600080fd5b50565b600081359050610ed281610eac565b92915050565b600060208284031215610eee57610eed610bbc565b5b6000610efc84828501610ec3565b91505092915050565b60008115159050919050565b610f1a81610f05565b82525050565b6000602082019050610f356000830184610f11565b92915050565b610f4481610c3f565b82525050565b610f5381610b7e565b82525050565b600082825260208201905092915050565b6000610f7582610c60565b610f7f8185610f59565b9350610f8f818560208601610c7c565b610f9881610ca6565b840191505092915050565b6000606083016000830151610fbb6000860182610f3b565b506020830151610fce6020860182610f4a565b5060408301518482036040860152610fe68282610f6a565b9150508091505092915050565b6000602082019050818103600083015261100d8184610fa3565b905092915050565b7f4e487b7100000000000000000000000000000000000000000000000000000000600052602260045260246000fd5b6000600282049050600182168061105c57607f821691505b60208210810361106f5761106e611015565b5b50919050565b7f4e487b7100000000000000000000000000000000000000000000000000000000600052601160045260246000fd5b60006110af82610b7e565b91507fffffffffffffffffffffffffffffffffffffffffffffffffffffffffffffffff82036110e1576110e0611075565b5b600182019050919050565b60008190508160005260206000209050919050565b60006020601f8301049050919050565b600082821b905092915050565b60006008830261114e7fffffffffffffffffffffffffffffffffffffffffffffffffffffffffffffffff82611111565b6111588683611111565b95508019841693508086168417925050509392505050565b6000819050919050565b600061119561119061118b84610b7e565b611170565b610b7e565b9050919050565b6000819050919050565b6111af8361117a565b6111c36111bb8261119c565b84845461111e565b825550505050565b600090565b6111d86111cb565b6111e38184846111a6565b505050565b5b81811015611207576111fc6000826111d0565b6001810190506111e9565b5050565b601f82111561124c5761121d816110ec565b61122684611101565b81016020851015611235578190505b61124961124185611101565b8301826111e8565b50505b505050565b600082821c905092915050565b600061126f60001984600802611251565b1980831691505092915050565b6000611288838361125e565b9150826002028217905092915050565b6112a182610c60565b67ffffffffffffffff8111156112ba576112b9610d38565b5b6112c48254611044565b6112cf82828561120b565b600060209050601f83116001811461130257600084156112f0578287015190505b6112fa858261127c565b865550611362565b601f198416611310866110ec565b60005b8281101561133857848901518255600182019150602085019450602081019050611313565b868310156113555784890151611351601f89168261125e565b8355505b6001600288020188555050505b505050505050565b7f45432061646d696e206f6e6c79206f7065726174696f6e2e0000000000000000600082015250565b60006113a0601883610c6b565b91506113ab8261136a565b602082019050919050565b600060208201905081810360008301526113cf81611393565b9050919050565b7f53746f70206174206c617465722074696d650000000000000000000000000000600082015250565b600061140c601283610c6b565b9150611417826113d6565b602082019050919050565b6000602082019050818103600083015261143b816113ff565b9050919050565b7f456c656374696f6e206e6f742073746172746564000000000000000000000000600082015250565b6000611478601483610c6b565b915061148382611442565b602082019050919050565b600060208201905081810360008301526114a78161146b565b9050919050565b7f456c656374696f6e206973206f76657200000000000000000000000000000000600082015250565b60006114e4601083610c6b565b91506114ef826114ae565b602082019050919050565b60006020820190508181036000830152611513816114d7565b9050919050565b7f416c726561647920766f74656400000000000000000000000000000000000000600082015250565b6000611550600d83610c6b565b915061155b8261151a565b602082019050919050565b6000602082019050818103600083015261157f81611543565b9050919050565b7f546865726520617265206e6f2043616e6469646174657320746f20766f746573600082015250565b60006115bc602083610c6b565b91506115c782611586565b602082019050919050565b600060208201905081810360008301526115eb816115af565b9050919050565b7f50726f7669646520612076616c69642049440000000000000000000000000000600082015250565b6000611628601283610c6b565b9150611633826115f2565b602082019050919050565b600060208201905081810360008301526116578161161b565b9050919050565b60006040820190506116736000830185610c51565b6116806020830184610c51565b9392505050565b7f456c656374696f6e2079657420746f2066696e69736800000000000000000000600082015250565b60006116bd601683610c6b565b91506116c882611687565b602082019050919050565b600060208201905081810360008301526116ec816116b0565b9050919050565b7f546865726520617265206e6f2063616e64696461746573206176616c61626c65600082015250565b6000611729602083610c6b565b9150611734826116f3565b602082019050919050565b600060208201905081810360008301526117588161171c565b9050919050565b7f53746f70206174206561726c6965722074696d65000000000000000000000000600082015250565b6000611795601483610c6b565b91506117a08261175f565b602082019050919050565b600060208201905081810360008301526117c481611788565b905091905056fea2646970667358221220edc24283f6ce8f73f98aa0bfc4a1f5f09bf6aa5578f8321813c8223fef8e47f664736f6c63430008130033",
  "immutableReferences": {},
  "source": "// SPDX-License-Identifier: UNLICENSED\r\npragma solidity 0.8.19;\r\n\r\ncontract Election {\r\n    \r\n    struct Candidate{\r\n        address id;\r\n        uint voteCount;\r\n        string candidateName;\r\n    }\r\n\r\n    event Registered(address candidateId,uint256 candidateNum,string candidateName);\r\n    event Voted(address voter,address candidate);\r\n\r\n    mapping (address => bool) public  voters;\r\n\r\n    mapping (uint=> Candidate) public  candidates;\r\n\r\n    address ecadmin;\r\n\r\n    uint public  candidateCount;\r\n    uint256 public  startTime;\r\n    uint256 public  stopTime;\r\n\r\n    constructor(){\r\n        ecadmin=msg.sender;\r\n    }\r\n\r\n    modifier  ecAdminOnly()\r\n    {\r\n        require(msg.sender==ecadmin,\"EC admin only operation.\");\r\n        _;\r\n    }\r\n\r\n    function addCandidate(string memory _name) public {\r\n        bool candidateExists = false;\r\n        uint candidateIndex=1;\r\n        for (uint i = 1; i <= candidateCount; i++) {\r\n            if (candidates[i].id == msg.sender) {\r\n                candidateExists = true;\r\n                candidateIndex = i;\r\n                break;\r\n            }\r\n        }\r\n        \r\n        if (candidateExists) {\r\n            candidates[candidateIndex].candidateName = _name;\r\n        } else {\r\n            candidateCount++;\r\n            candidates[candidateCount] = Candidate(msg.sender, 0, _name);\r\n        }\r\n\r\n        emit Registered(msg.sender, candidateCount, _name);\r\n    }\r\n\r\n    function setStop(uint256 num) external ecAdminOnly {\r\n        require(num > block.timestamp && num > startTime,\"Stop at later time\");\r\n        stopTime = num;\r\n    }\r\n\r\n    function setStart(uint256 num) external ecAdminOnly {\r\n        require(num >= block.timestamp,\"Stop at earlier time\");\r\n        startTime = num;\r\n    }\r\n\r\n    function Vote(uint _candidateId) public {\r\n        require(block.timestamp > startTime,\"Election not started\");\r\n        require(block.timestamp <= stopTime,\"Election is over\");\r\n        require(voters[msg.sender] == false,\"Already voted\");\r\n        require(candidateCount>0,\"There are no Candidates to votes\");\r\n        require(_candidateId<=candidateCount && _candidateId>0,\"Provide a valid ID\");\r\n        voters[msg.sender] = true;\r\n        candidates[_candidateId].voteCount++;\r\n\r\n        emit Voted(msg.sender, candidates[_candidateId].id);\r\n    }\r\n\r\n    function getResult() public view returns (Candidate memory candidate) {\r\n        require(block.timestamp >= stopTime,\"Election yet to finish\");\r\n        require(candidateCount>0,\"There are no candidates avalable\");\r\n        uint256 c;\r\n        uint256 max = 0;\r\n\r\n        for(uint i = 1; i <= candidateCount; i++) {\r\n            if(candidates[i].voteCount > max) {\r\n                max = candidates[i].voteCount;\r\n                c = i;\r\n            }\r\n        }\r\n\r\n        return candidates[c];\r\n    }\r\n}\r\n",
  "sourcePath": "C:\\Users\\mayur\\OneDrive\\Desktop\\Project\\contracts\\Election.sol",
  "compiler": {
    "name": "solc",
    "version": "0.8.19+commit.7dd6d404.Emscripten.clang"
  },
  "schemaVersion": "3.4.16",
  "updatedAt": "2023-12-10T08:48:55.583Z",
  "networkType": "ethereum",
  "devdoc": {
    "kind": "dev",
    "methods": {},
    "version": 1
  },
  "userdoc": {
    "kind": "user",
    "methods": {},
    "version": 1
  }
}