{
  "contractName": "Election",
  "abi": [
    {
      "inputs": [],
      "stateMutability": "nonpayable",
      "type": "constructor"
    },
    {
      "anonymous": false,
      "inputs": [
        {
          "indexed": true,
          "internalType": "address",
          "name": "sender",
          "type": "address"
        },
        {
          "indexed": false,
          "internalType": "uint256",
          "name": "value",
          "type": "uint256"
        }
      ],
      "name": "Received",
      "type": "event"
    },
    {
      "anonymous": false,
      "inputs": [
        {
          "indexed": false,
          "internalType": "string",
          "name": "candidateId",
          "type": "string"
        },
        {
          "indexed": false,
          "internalType": "uint256",
          "name": "candidateNum",
          "type": "uint256"
        },
        {
          "indexed": false,
          "internalType": "string",
          "name": "candidateName",
          "type": "string"
        },
        {
          "indexed": false,
          "internalType": "string",
          "name": "candidateParty",
          "type": "string"
        }
      ],
      "name": "Registered",
      "type": "event"
    },
    {
      "anonymous": false,
      "inputs": [
        {
          "indexed": false,
          "internalType": "address",
          "name": "voter",
          "type": "address"
        },
        {
          "indexed": false,
          "internalType": "string",
          "name": "candidate",
          "type": "string"
        }
      ],
      "name": "Voted",
      "type": "event"
    },
    {
      "inputs": [],
      "name": "candidateCount",
      "outputs": [
        {
          "internalType": "uint256",
          "name": "",
          "type": "uint256"
        }
      ],
      "stateMutability": "view",
      "type": "function",
      "constant": true
    },
    {
      "inputs": [
        {
          "internalType": "uint256",
          "name": "",
          "type": "uint256"
        }
      ],
      "name": "candidates",
      "outputs": [
        {
          "internalType": "string",
          "name": "id",
          "type": "string"
        },
        {
          "internalType": "uint256",
          "name": "voteCount",
          "type": "uint256"
        },
        {
          "internalType": "string",
          "name": "candidateName",
          "type": "string"
        },
        {
          "internalType": "string",
          "name": "candidateParty",
          "type": "string"
        }
      ],
      "stateMutability": "view",
      "type": "function",
      "constant": true
    },
    {
      "inputs": [],
      "name": "startTime",
      "outputs": [
        {
          "internalType": "uint256",
          "name": "",
          "type": "uint256"
        }
      ],
      "stateMutability": "view",
      "type": "function",
      "constant": true
    },
    {
      "inputs": [],
      "name": "stopTime",
      "outputs": [
        {
          "internalType": "uint256",
          "name": "",
          "type": "uint256"
        }
      ],
      "stateMutability": "view",
      "type": "function",
      "constant": true
    },
    {
      "inputs": [
        {
          "internalType": "address",
          "name": "",
          "type": "address"
        }
      ],
      "name": "voters",
      "outputs": [
        {
          "internalType": "bool",
          "name": "",
          "type": "bool"
        }
      ],
      "stateMutability": "view",
      "type": "function",
      "constant": true
    },
    {
      "inputs": [],
      "name": "getTotalCandidatesCount",
      "outputs": [
        {
          "internalType": "uint256",
          "name": "",
          "type": "uint256"
        }
      ],
      "stateMutability": "view",
      "type": "function",
      "constant": true
    },
    {
      "inputs": [],
      "name": "getAllCandidatesNames",
      "outputs": [
        {
          "components": [
            {
              "internalType": "string",
              "name": "id",
              "type": "string"
            },
            {
              "internalType": "uint256",
              "name": "voteCount",
              "type": "uint256"
            },
            {
              "internalType": "string",
              "name": "candidateName",
              "type": "string"
            },
            {
              "internalType": "string",
              "name": "candidateParty",
              "type": "string"
            }
          ],
          "internalType": "struct Election.Candidate[]",
          "name": "",
          "type": "tuple[]"
        }
      ],
      "stateMutability": "view",
      "type": "function",
      "constant": true
    },
    {
      "inputs": [],
      "name": "receiveFunds",
      "outputs": [],
      "stateMutability": "payable",
      "type": "function",
      "payable": true
    },
    {
      "inputs": [
        {
          "internalType": "string",
          "name": "_id",
          "type": "string"
        },
        {
          "internalType": "string",
          "name": "_name",
          "type": "string"
        },
        {
          "internalType": "string",
          "name": "_partyName",
          "type": "string"
        }
      ],
      "name": "addCandidate",
      "outputs": [],
      "stateMutability": "nonpayable",
      "type": "function"
    },
    {
      "inputs": [
        {
          "internalType": "uint256",
          "name": "num",
          "type": "uint256"
        }
      ],
      "name": "setStop",
      "outputs": [],
      "stateMutability": "nonpayable",
      "type": "function"
    },
    {
      "inputs": [
        {
          "internalType": "uint256",
          "name": "num",
          "type": "uint256"
        }
      ],
      "name": "setStart",
      "outputs": [],
      "stateMutability": "nonpayable",
      "type": "function"
    },
    {
      "inputs": [
        {
          "internalType": "uint256",
          "name": "_candidateId",
          "type": "uint256"
        }
      ],
      "name": "Vote",
      "outputs": [],
      "stateMutability": "nonpayable",
      "type": "function"
    },
    {
      "inputs": [],
      "name": "getResult",
      "outputs": [
        {
          "components": [
            {
              "internalType": "string",
              "name": "id",
              "type": "string"
            },
            {
              "internalType": "uint256",
              "name": "voteCount",
              "type": "uint256"
            },
            {
              "internalType": "string",
              "name": "candidateName",
              "type": "string"
            },
            {
              "internalType": "string",
              "name": "candidateParty",
              "type": "string"
            }
          ],
          "internalType": "struct Election.Candidate",
          "name": "candidate",
          "type": "tuple"
        }
      ],
      "stateMutability": "view",
      "type": "function",
      "constant": true
    }
  ],
  "bytecode": "0x608060405234801561001057600080fd5b5033600260006101000a81548173ffffffffffffffffffffffffffffffffffffffff021916908373ffffffffffffffffffffffffffffffffffffffff160217905550611d0b806100616000396000f3fe6080604052600436106100c15760003560e01c8063a3ec138d1161007f578063c1f127e211610059578063c1f127e21461024d578063dcd6a5cd14610276578063de2927891461029f578063f6a03ebf146102ca576100c1565b8063a3ec138d146101bc578063a9a981a3146101f9578063ad71f8dc14610224576100c1565b80625c33e1146100c657806303721430146100d057806303ff5e73146100fb5780633477ee2e1461012657806378e97925146101665780638e711b5714610191575b600080fd5b6100ce6102f3565b005b3480156100dc57600080fd5b506100e5610343565b6040516100f29190611130565b60405180910390f35b34801561010757600080fd5b506101106105d2565b60405161011d9190611161565b60405180910390f35b34801561013257600080fd5b5061014d600480360381019061014891906111bc565b6105d8565b60405161015d9493929190611233565b60405180910390f35b34801561017257600080fd5b5061017b6107a0565b6040516101889190611161565b60405180910390f35b34801561019d57600080fd5b506101a66107a6565b6040516101b39190611161565b60405180910390f35b3480156101c857600080fd5b506101e360048036038101906101de91906112eb565b6107b0565b6040516101f09190611333565b60405180910390f35b34801561020557600080fd5b5061020e6107d0565b60405161021b9190611161565b60405180910390f35b34801561023057600080fd5b5061024b60048036038101906102469190611483565b6107d6565b005b34801561025957600080fd5b50610274600480360381019061026f91906111bc565b6109ad565b005b34801561028257600080fd5b5061029d600480360381019061029891906111bc565b610a96565b005b3480156102ab57600080fd5b506102b4610bfc565b6040516102c1919061159b565b60405180910390f35b3480156102d657600080fd5b506102f160048036038101906102ec91906111bc565b610e4f565b005b3373ffffffffffffffffffffffffffffffffffffffff167f88a5966d370b9919b20f3e2c13ff65706f196a4e32cc2c12bf57088f88525874346040516103399190611161565b60405180910390a2565b6060600060035467ffffffffffffffff81111561036357610362611358565b5b60405190808252806020026020018201604052801561039c57816020015b610389610f2c565b8152602001906001900390816103815790505b5090506000600190505b60035481116105ca57600160008281526020019081526020016000206040518060800160405290816000820180546103dd906115ec565b80601f0160208091040260200160405190810160405280929190818152602001828054610409906115ec565b80156104565780601f1061042b57610100808354040283529160200191610456565b820191906000526020600020905b81548152906001019060200180831161043957829003601f168201915b5050505050815260200160018201548152602001600282018054610479906115ec565b80601f01602080910402602001604051908101604052809291908181526020018280546104a5906115ec565b80156104f25780601f106104c7576101008083540402835291602001916104f2565b820191906000526020600020905b8154815290600101906020018083116104d557829003601f168201915b5050505050815260200160038201805461050b906115ec565b80601f0160208091040260200160405190810160405280929190818152602001828054610537906115ec565b80156105845780601f1061055957610100808354040283529160200191610584565b820191906000526020600020905b81548152906001019060200180831161056757829003601f168201915b5050505050815250508260018361059b919061164c565b815181106105ac576105ab611680565b5b602002602001018190525080806105c2906116af565b9150506103a6565b508091505090565b60055481565b60016020528060005260406000206000915090508060000180546105fb906115ec565b80601f0160208091040260200160405190810160405280929190818152602001828054610627906115ec565b80156106745780601f1061064957610100808354040283529160200191610674565b820191906000526020600020905b81548152906001019060200180831161065757829003601f168201915b50505050509080600101549080600201805461068f906115ec565b80601f01602080910402602001604051908101604052809291908181526020018280546106bb906115ec565b80156107085780601f106106dd57610100808354040283529160200191610708565b820191906000526020600020905b8154815290600101906020018083116106eb57829003601f168201915b50505050509080600301805461071d906115ec565b80601f0160208091040260200160405190810160405280929190818152602001828054610749906115ec565b80156107965780601f1061076b57610100808354040283529160200191610796565b820191906000526020600020905b81548152906001019060200180831161077957829003601f168201915b5050505050905084565b60045481565b6000600354905090565b60006020528060005260406000206000915054906101000a900460ff1681565b60035481565b600080600190506000600190505b600354811161087457856040516020016107fe9190611733565b604051602081830303815290604052805190602001206001600083815260200190815260200160002060000160405160200161083a91906117e2565b60405160208183030381529060405280519060200120036108615760019250809150610874565b808061086c906116af565b9150506107e4565b5081156108c8578360016000838152602001908152602001600020600201908161089e9190611990565b50826001600083815260200190815260200160002060030190816108c29190611990565b50610967565b600360008154809291906108db906116af565b919050555060405180608001604052808681526020016000815260200185815260200184815250600160006003548152602001908152602001600020600082015181600001908161092c9190611990565b5060208201518160010155604082015181600201908161094c9190611990565b5060608201518160030190816109629190611990565b509050505b7f2af59f79e7509ec1ade893df3475851d2df67c09e6223c8722d8fb0c747e23cf85600354868660405161099e9493929190611233565b60405180910390a15050505050565b600260009054906101000a900473ffffffffffffffffffffffffffffffffffffffff1673ffffffffffffffffffffffffffffffffffffffff163373ffffffffffffffffffffffffffffffffffffffff1614610a3d576040517f08c379a0000000000000000000000000000000000000000000000000000000008152600401610a3490611aae565b60405180910390fd5b4281118015610a4d575060045481115b610a8c576040517f08c379a0000000000000000000000000000000000000000000000000000000008152600401610a8390611b1a565b60405180910390fd5b8060058190555050565b600015156000803373ffffffffffffffffffffffffffffffffffffffff1673ffffffffffffffffffffffffffffffffffffffff16815260200190815260200160002060009054906101000a900460ff16151514610b28576040517f08c379a0000000000000000000000000000000000000000000000000000000008152600401610b1f90611b86565b60405180910390fd5b60016000803373ffffffffffffffffffffffffffffffffffffffff1673ffffffffffffffffffffffffffffffffffffffff16815260200190815260200160002060006101000a81548160ff021916908315150217905550600160008281526020019081526020016000206001016000815480929190610ba6906116af565b91905055507fcb6783276e8a4347387036bbfea000268f0a4b1f8c46ac79980609f2af8d2acd3360016000848152602001908152602001600020600001604051610bf1929190611c39565b60405180910390a150565b610c04610f2c565b600080600090506000600190505b6003548111610c69578160016000838152602001908152602001600020600101541115610c5657600160008281526020019081526020016000206001015491508092505b8080610c61906116af565b915050610c12565b5060016000838152602001908152602001600020604051806080016040529081600082018054610c98906115ec565b80601f0160208091040260200160405190810160405280929190818152602001828054610cc4906115ec565b8015610d115780601f10610ce657610100808354040283529160200191610d11565b820191906000526020600020905b815481529060010190602001808311610cf457829003601f168201915b5050505050815260200160018201548152602001600282018054610d34906115ec565b80601f0160208091040260200160405190810160405280929190818152602001828054610d60906115ec565b8015610dad5780601f10610d8257610100808354040283529160200191610dad565b820191906000526020600020905b815481529060010190602001808311610d9057829003601f168201915b50505050508152602001600382018054610dc6906115ec565b80601f0160208091040260200160405190810160405280929190818152602001828054610df2906115ec565b8015610e3f5780601f10610e1457610100808354040283529160200191610e3f565b820191906000526020600020905b815481529060010190602001808311610e2257829003601f168201915b5050505050815250509250505090565b600260009054906101000a900473ffffffffffffffffffffffffffffffffffffffff1673ffffffffffffffffffffffffffffffffffffffff163373ffffffffffffffffffffffffffffffffffffffff1614610edf576040517f08c379a0000000000000000000000000000000000000000000000000000000008152600401610ed690611aae565b60405180910390fd5b42811015610f22576040517f08c379a0000000000000000000000000000000000000000000000000000000008152600401610f1990611cb5565b60405180910390fd5b8060048190555050565b6040518060800160405280606081526020016000815260200160608152602001606081525090565b600081519050919050565b600082825260208201905092915050565b6000819050602082019050919050565b600081519050919050565b600082825260208201905092915050565b60005b83811015610fba578082015181840152602081019050610f9f565b60008484015250505050565b6000601f19601f8301169050919050565b6000610fe282610f80565b610fec8185610f8b565b9350610ffc818560208601610f9c565b61100581610fc6565b840191505092915050565b6000819050919050565b61102381611010565b82525050565b600060808301600083015184820360008601526110468282610fd7565b915050602083015161105b602086018261101a565b50604083015184820360408601526110738282610fd7565b9150506060830151848203606086015261108d8282610fd7565b9150508091505092915050565b60006110a68383611029565b905092915050565b6000602082019050919050565b60006110c682610f54565b6110d08185610f5f565b9350836020820285016110e285610f70565b8060005b8581101561111e57848403895281516110ff858261109a565b945061110a836110ae565b925060208a019950506001810190506110e6565b50829750879550505050505092915050565b6000602082019050818103600083015261114a81846110bb565b905092915050565b61115b81611010565b82525050565b60006020820190506111766000830184611152565b92915050565b6000604051905090565b600080fd5b600080fd5b61119981611010565b81146111a457600080fd5b50565b6000813590506111b681611190565b92915050565b6000602082840312156111d2576111d1611186565b5b60006111e0848285016111a7565b91505092915050565b600082825260208201905092915050565b600061120582610f80565b61120f81856111e9565b935061121f818560208601610f9c565b61122881610fc6565b840191505092915050565b6000608082019050818103600083015261124d81876111fa565b905061125c6020830186611152565b818103604083015261126e81856111fa565b9050818103606083015261128281846111fa565b905095945050505050565b600073ffffffffffffffffffffffffffffffffffffffff82169050919050565b60006112b88261128d565b9050919050565b6112c8816112ad565b81146112d357600080fd5b50565b6000813590506112e5816112bf565b92915050565b60006020828403121561130157611300611186565b5b600061130f848285016112d6565b91505092915050565b60008115159050919050565b61132d81611318565b82525050565b60006020820190506113486000830184611324565b92915050565b600080fd5b600080fd5b7f4e487b7100000000000000000000000000000000000000000000000000000000600052604160045260246000fd5b61139082610fc6565b810181811067ffffffffffffffff821117156113af576113ae611358565b5b80604052505050565b60006113c261117c565b90506113ce8282611387565b919050565b600067ffffffffffffffff8211156113ee576113ed611358565b5b6113f782610fc6565b9050602081019050919050565b82818337600083830152505050565b6000611426611421846113d3565b6113b8565b90508281526020810184848401111561144257611441611353565b5b61144d848285611404565b509392505050565b600082601f83011261146a5761146961134e565b5b813561147a848260208601611413565b91505092915050565b60008060006060848603121561149c5761149b611186565b5b600084013567ffffffffffffffff8111156114ba576114b961118b565b5b6114c686828701611455565b935050602084013567ffffffffffffffff8111156114e7576114e661118b565b5b6114f386828701611455565b925050604084013567ffffffffffffffff8111156115145761151361118b565b5b61152086828701611455565b9150509250925092565b600060808301600083015184820360008601526115478282610fd7565b915050602083015161155c602086018261101a565b50604083015184820360408601526115748282610fd7565b9150506060830151848203606086015261158e8282610fd7565b9150508091505092915050565b600060208201905081810360008301526115b5818461152a565b905092915050565b7f4e487b7100000000000000000000000000000000000000000000000000000000600052602260045260246000fd5b6000600282049050600182168061160457607f821691505b602082108103611617576116166115bd565b5b50919050565b7f4e487b7100000000000000000000000000000000000000000000000000000000600052601160045260246000fd5b600061165782611010565b915061166283611010565b925082820390508181111561167a5761167961161d565b5b92915050565b7f4e487b7100000000000000000000000000000000000000000000000000000000600052603260045260246000fd5b60006116ba82611010565b91507fffffffffffffffffffffffffffffffffffffffffffffffffffffffffffffffff82036116ec576116eb61161d565b5b600182019050919050565b600081905092915050565b600061170d82610f80565b61171781856116f7565b9350611727818560208601610f9c565b80840191505092915050565b600061173f8284611702565b915081905092915050565b60008190508160005260206000209050919050565b6000815461176c816115ec565b61177681866116f7565b9450600182166000811461179157600181146117a6576117d9565b60ff19831686528115158202860193506117d9565b6117af8561174a565b60005b838110156117d1578154818901526001820191506020810190506117b2565b838801955050505b50505092915050565b60006117ee828461175f565b915081905092915050565b60006020601f8301049050919050565b600082821b905092915050565b6000600883026118467fffffffffffffffffffffffffffffffffffffffffffffffffffffffffffffffff82611809565b6118508683611809565b95508019841693508086168417925050509392505050565b6000819050919050565b600061188d61188861188384611010565b611868565b611010565b9050919050565b6000819050919050565b6118a783611872565b6118bb6118b382611894565b848454611816565b825550505050565b600090565b6118d06118c3565b6118db81848461189e565b505050565b5b818110156118ff576118f46000826118c8565b6001810190506118e1565b5050565b601f821115611944576119158161174a565b61191e846117f9565b8101602085101561192d578190505b611941611939856117f9565b8301826118e0565b50505b505050565b600082821c905092915050565b600061196760001984600802611949565b1980831691505092915050565b60006119808383611956565b9150826002028217905092915050565b61199982610f80565b67ffffffffffffffff8111156119b2576119b1611358565b5b6119bc82546115ec565b6119c7828285611903565b600060209050601f8311600181146119fa57600084156119e8578287015190505b6119f28582611974565b865550611a5a565b601f198416611a088661174a565b60005b82811015611a3057848901518255600182019150602085019450602081019050611a0b565b86831015611a4d5784890151611a49601f891682611956565b8355505b6001600288020188555050505b505050505050565b7f45432061646d696e206f6e6c79206f7065726174696f6e2e0000000000000000600082015250565b6000611a986018836111e9565b9150611aa382611a62565b602082019050919050565b60006020820190508181036000830152611ac781611a8b565b9050919050565b7f53746f70206174206c617465722074696d650000000000000000000000000000600082015250565b6000611b046012836111e9565b9150611b0f82611ace565b602082019050919050565b60006020820190508181036000830152611b3381611af7565b9050919050565b7f416c726561647920766f74656400000000000000000000000000000000000000600082015250565b6000611b70600d836111e9565b9150611b7b82611b3a565b602082019050919050565b60006020820190508181036000830152611b9f81611b63565b9050919050565b611baf816112ad565b82525050565b60008154611bc2816115ec565b611bcc81866111e9565b94506001821660008114611be75760018114611bfd57611c30565b60ff198316865281151560200286019350611c30565b611c068561174a565b60005b83811015611c2857815481890152600182019150602081019050611c09565b808801955050505b50505092915050565b6000604082019050611c4e6000830185611ba6565b8181036020830152611c608184611bb5565b90509392505050565b7f53746f70206174206561726c6965722074696d65000000000000000000000000600082015250565b6000611c9f6014836111e9565b9150611caa82611c69565b602082019050919050565b60006020820190508181036000830152611cce81611c92565b905091905056fea2646970667358221220372619c97d6509a380de4db87ee2886c302536662f44ca5fd0a628f2ede526db64736f6c63430008130033",
  "immutableReferences": {},
  "source": "// SPDX-License-Identifier: UNLICENSED\r\npragma solidity 0.8.19;\r\n\r\ncontract Election {\r\n    struct Candidate{\r\n        string id;\r\n        uint voteCount;\r\n        string candidateName;\r\n        string candidateParty;\r\n    }\r\n    event Registered(string candidateId,uint256 candidateNum,string candidateName,string candidateParty);\r\n    event Voted(address voter,string candidate);\r\n    mapping (address => bool) public  voters;\r\n    mapping (uint=> Candidate) public  candidates;\r\n    address ecadmin;\r\n    uint public  candidateCount;\r\n    uint256 public  startTime;\r\n    uint256 public  stopTime;\r\n\r\n    function getTotalCandidatesCount() public view returns (uint) {\r\n        return candidateCount;\r\n    }\r\n\r\n    function getAllCandidatesNames() public view returns (Candidate[] memory) {\r\n        Candidate[] memory candidateNames = new Candidate[](candidateCount);\r\n\r\n        for (uint i = 1; i <= candidateCount; i++) {\r\n            candidateNames[i - 1] = candidates[i];\r\n        }\r\n\r\n        return candidateNames;\r\n    } \r\n\r\n    constructor(){\r\n        ecadmin=msg.sender;\r\n    }\r\n\r\n    modifier  ecAdminOnly()\r\n    {\r\n        require(msg.sender==ecadmin,\"EC admin only operation.\");\r\n        _;\r\n    }\r\n\r\n    function receiveFunds() external payable {\r\n        // Perform any actions or logic you want when the contract receives Ether\r\n        emit Received(msg.sender, msg.value);\r\n    }\r\n\r\n    event Received(address indexed sender, uint256 value);\r\n\r\n    function addCandidate(string memory _id,string memory _name,string memory _partyName) public {\r\n        bool candidateExists = false;\r\n        uint candidateIndex=1;\r\n        for (uint i = 1; i <= candidateCount; i++) {\r\n            if (keccak256(abi.encodePacked(candidates[i].id)) == keccak256(abi.encodePacked(_id))) {\r\n                candidateExists = true;\r\n                candidateIndex = i;\r\n                break;\r\n            }\r\n        }\r\n        \r\n        if (candidateExists) {\r\n            candidates[candidateIndex].candidateName = _name;\r\n            candidates[candidateIndex].candidateParty = _partyName;\r\n        } else {\r\n            candidateCount++;\r\n            candidates[candidateCount] = Candidate(_id, 0, _name,_partyName);\r\n        }\r\n\r\n        emit Registered(_id, candidateCount, _name,_partyName);\r\n    }\r\n\r\n    function setStop(uint256 num) external ecAdminOnly {\r\n        require(num > block.timestamp && num > startTime,\"Stop at later time\");\r\n        stopTime = num;\r\n    }\r\n\r\n    function setStart(uint256 num) external ecAdminOnly {\r\n        require(num >= block.timestamp,\"Stop at earlier time\");\r\n        startTime = num;\r\n    }\r\n\r\n    function Vote(uint _candidateId) public {\r\n        // require(block.timestamp > startTime,\"Election not started\");\r\n        // require(block.timestamp <= stopTime,\"Election is over\");\r\n        require(voters[msg.sender] == false,\"Already voted\");\r\n        // require(candidateCount>0,\"There are no Candidates to votes\");\r\n        // require(_candidateId<=candidateCount && _candidateId>0,\"Provide a valid ID\");\r\n        voters[msg.sender] = true;\r\n        candidates[_candidateId].voteCount++;\r\n        \r\n        emit Voted(msg.sender, candidates[_candidateId].id);\r\n    }\r\n\r\n    function getResult() public view returns (Candidate memory candidate) {\r\n        // require(block.timestamp >= stopTime,\"Election yet to finish\");\r\n        // require(candidateCount>0,\"There are no candidates avalable\");\r\n        uint256 c;\r\n        uint256 max = 0;\r\n\r\n        for(uint i = 1; i <= candidateCount; i++) {\r\n            if(candidates[i].voteCount > max) {\r\n                max = candidates[i].voteCount;\r\n                c = i;\r\n            }\r\n        }\r\n\r\n        return candidates[c];\r\n    }\r\n}\r\n",
  "sourcePath": "C:\\Users\\mayur\\OneDrive\\Desktop\\Project\\contracts\\Election.sol",
  "compiler": {
    "name": "solc",
    "version": "0.8.19+commit.7dd6d404.Emscripten.clang"
  },
  "schemaVersion": "3.4.16",
  "updatedAt": "2023-12-15T15:12:21.393Z",
  "networkType": "ethereum",
  "devdoc": {
    "kind": "dev",
    "methods": {},
    "version": 1
  },
  "userdoc": {
    "kind": "user",
    "methods": {},
    "version": 1
  }
}